{
  "address": "0xBEc49fA140aCaA83533fB00A2BB19bDdd0290f25",
  "abi": [
    {
      "inputs": [
        {
          "internalType": "address",
          "name": "_wethAddress",
          "type": "address"
        },
        {
          "internalType": "address",
          "name": "_dydxSoloMarginAddress",
          "type": "address"
        },
        {
          "internalType": "address",
          "name": "_uniswapV2RouterAddress",
          "type": "address"
        },
        {
          "internalType": "address",
          "name": "_sushiswapRouterAddress",
          "type": "address"
        },
        {
          "internalType": "address",
          "name": "_cryptoComRouterAddress",
          "type": "address"
        }
      ],
      "stateMutability": "nonpayable",
      "type": "constructor"
    },
    {
      "anonymous": false,
      "inputs": [
        {
          "indexed": false,
          "internalType": "address",
          "name": "tradedTokenAddress",
          "type": "address"
        },
        {
          "indexed": false,
          "internalType": "uint256",
          "name": "borrowedWethAmount",
          "type": "uint256"
        },
        {
          "indexed": false,
          "internalType": "enum Exchange",
          "name": "sellingExchangeIndex",
          "type": "uint8"
        },
        {
          "indexed": false,
          "internalType": "uint256",
          "name": "tradedTokenAmountOut",
          "type": "uint256"
        },
        {
          "indexed": false,
          "internalType": "enum Exchange",
          "name": "buyingExchangeIndex",
          "type": "uint8"
        },
        {
          "indexed": false,
          "internalType": "uint256",
          "name": "wethAmountOut",
          "type": "uint256"
        }
      ],
      "name": "SuccessfulTrade",
      "type": "event"
    },
    {
      "stateMutability": "payable",
      "type": "fallback"
    },
    {
      "inputs": [
        {
          "internalType": "address",
          "name": "sender",
          "type": "address"
        },
        {
          "components": [
            {
              "internalType": "address",
              "name": "owner",
              "type": "address"
            },
            {
              "internalType": "uint256",
              "name": "number",
              "type": "uint256"
            }
          ],
          "internalType": "struct Account.Info",
          "name": "accountInfo",
          "type": "tuple"
        },
        {
          "internalType": "bytes",
          "name": "data",
          "type": "bytes"
        }
      ],
      "name": "callFunction",
      "outputs": [],
      "stateMutability": "nonpayable",
      "type": "function"
    },
    {
      "inputs": [
        {
          "internalType": "address payable",
          "name": "_to",
          "type": "address"
        }
      ],
      "name": "destruct",
      "outputs": [],
      "stateMutability": "nonpayable",
      "type": "function"
    },
    {
      "inputs": [
        {
          "internalType": "enum Exchange",
          "name": "exchangeIndex",
          "type": "uint8"
        }
      ],
      "name": "getExchange",
      "outputs": [
        {
          "internalType": "contract IUniswapV2Router",
          "name": "",
          "type": "address"
        }
      ],
      "stateMutability": "view",
      "type": "function"
    },
    {
      "inputs": [],
      "name": "owner",
      "outputs": [
        {
          "internalType": "address",
          "name": "",
          "type": "address"
        }
      ],
      "stateMutability": "view",
      "type": "function"
    },
    {
      "inputs": [
        {
          "internalType": "address",
          "name": "_newOwner",
          "type": "address"
        }
      ],
      "name": "setOwner",
      "outputs": [],
      "stateMutability": "nonpayable",
      "type": "function"
    },
    {
      "inputs": [
        {
          "internalType": "uint256",
          "name": "_wethAmountToBorrow",
          "type": "uint256"
        },
        {
          "internalType": "enum Exchange",
          "name": "_sellingExchangeIndex",
          "type": "uint8"
        },
        {
          "internalType": "uint256",
          "name": "_minWethAmountOut",
          "type": "uint256"
        },
        {
          "internalType": "enum Exchange",
          "name": "_buyingExchangeIndex",
          "type": "uint8"
        },
        {
          "internalType": "address",
          "name": "_tradedTokenAddress",
          "type": "address"
        },
        {
          "internalType": "uint256",
          "name": "_minTradedTokenAmountOut",
          "type": "uint256"
        },
        {
          "internalType": "uint256",
          "name": "_deadline",
          "type": "uint256"
        }
      ],
      "name": "trade",
      "outputs": [],
      "stateMutability": "nonpayable",
      "type": "function"
    },
    {
      "inputs": [
        {
          "internalType": "address",
          "name": "_token",
          "type": "address"
        },
        {
          "internalType": "uint256",
          "name": "_amount",
          "type": "uint256"
        },
        {
          "internalType": "address",
          "name": "_to",
          "type": "address"
        }
      ],
      "name": "transferERC20",
      "outputs": [],
      "stateMutability": "nonpayable",
      "type": "function"
    },
    {
      "inputs": [
        {
          "internalType": "uint256",
          "name": "_amount",
          "type": "uint256"
        },
        {
          "internalType": "address payable",
          "name": "_to",
          "type": "address"
        }
      ],
      "name": "transferETH",
      "outputs": [],
      "stateMutability": "nonpayable",
      "type": "function"
    },
    {
      "stateMutability": "payable",
      "type": "receive"
    }
  ],
  "transactionHash": "0x4f4d518e78f71fab2bb37a66e8f3c3753db65d23d91a673af0546d4f79bffcec",
  "args": [
    "0xC02aaA39b223FE8D0A0e5C4F27eAD9083C756Cc2",
    "0x1E0447b19BB6EcFdAe1e4AE1694b0C3659614e4e",
    "0x7a250d5630B4cF539739dF2C5dAcb4c659F2488D",
    "0xd9e1cE17f2641f24aE83637ab66a2cca9C378B9F",
    "0xCeB90E4C17d626BE0fACd78b79c9c87d7ca181b3"
  ],
  "solcInputHash": "6ff2b5747a222c5971eb41c19f36735d",
  "bytecode": "0x60806040523480156200001157600080fd5b50604051620017ea380380620017ea8339810160408190526200003491620000be565b60008054336001600160a01b0319918216179091556001805482166001600160a01b0397881617905560028054821695871695909517909455600380548516938616939093179092556004805484169185169190911790556005805490921692169190911790556200012d565b80516001600160a01b0381168114620000b957600080fd5b919050565b600080600080600060a08688031215620000d6578081fd5b620000e186620000a1565b9450620000f160208701620000a1565b93506200010160408701620000a1565b92506200011160608701620000a1565b91506200012160808701620000a1565b90509295509295909350565b6116ad806200013d6000396000f3fe6080604052600436106100795760003560e01c80638b4187131161004b5780638b4187131461011e5780638da5cb5b1461013e57806397e10a791461015e578063a1d6ba531461017e57005b806313af4035146100825780631beb2615146100a25780636e07c470146100c25780637911f082146100e257005b3661008057005b005b34801561008e57600080fd5b5061008061009d366004610f1c565b61019e565b3480156100ae57600080fd5b506100806100bd366004610f1c565b6101f3565b3480156100ce57600080fd5b506100806100dd3660046111f3565b61032e565b3480156100ee57600080fd5b506101026100fd366004611125565b6103f2565b6040516001600160a01b03909116815260200160405180910390f35b34801561012a57600080fd5b50610080610139366004610f3f565b610477565b34801561014a57600080fd5b50600054610102906001600160a01b031681565b34801561016a57600080fd5b5061008061017936600461101c565b610932565b34801561018a57600080fd5b50610080610199366004611222565b6109e4565b6000546001600160a01b031633146101d15760405162461bcd60e51b81526004016101c8906114a0565b60405180910390fd5b600080546001600160a01b0319166001600160a01b0392909216919091179055565b6000546001600160a01b0316331461021d5760405162461bcd60e51b81526004016101c8906114a0565b6001546040516370a0823160e01b81523060048201526000916001600160a01b0316906370a082319060240160206040518083038186803b15801561026157600080fd5b505afa158015610275573d6000803e3d6000fd5b505050506040513d601f19601f8201168201806040525081019061029991906111db565b60015460405163a9059cbb60e01b81526001600160a01b0385811660048301526024820184905292935091169063a9059cbb90604401602060405180830381600087803b1580156102e957600080fd5b505af11580156102fd573d6000803e3d6000fd5b505050506040513d601f19601f820116820180604052508101906103219190611105565b50816001600160a01b0316ff5b6000546001600160a01b031633146103585760405162461bcd60e51b81526004016101c8906114a0565b6000816001600160a01b03168360405160006040518083038185875af1925050503d80600081146103a5576040519150601f19603f3d011682016040523d82523d6000602084013e6103aa565b606091505b50509050806103ed5760405162461bcd60e51b815260206004820152600f60248201526e151c985b9cd9995c8819985a5b1959608a1b60448201526064016101c8565b505050565b6003546000906001600160a01b0316600183600281111561042357634e487b7160e01b600052602160045260246000fd5b141561043b57506004546001600160a01b0316610471565b600283600281111561045d57634e487b7160e01b600052602160045260246000fd5b141561047157506005546001600160a01b03165b92915050565b6002546001600160a01b0316331461049f57634e487b7160e01b600052600160045260246000fd5b6000818060200190518101906104b59190611141565b905060006104c682608001516103f2565b905060006104d78360a001516103f2565b600154845160405163095ea7b360e01b81526001600160a01b0386811660048301526024820192909252929350169063095ea7b390604401602060405180830381600087803b15801561052957600080fd5b505af115801561053d573d6000803e3d6000fd5b505050506040513d601f19601f820116820180604052508101906105619190611105565b50604080516002808252606082018352600092602083019080368337505060015482519293506001600160a01b0316918391506000906105b157634e487b7160e01b600052603260045260246000fd5b60200260200101906001600160a01b031690816001600160a01b0316815250508360200151816001815181106105f757634e487b7160e01b600052603260045260246000fd5b6001600160a01b039283166020918202929092010152845160408087015160c088015191516338ed173960e01b81526000948816936338ed17399361064493919288913091600401611528565b600060405180830381600087803b15801561065e57600080fd5b505af1158015610672573d6000803e3d6000fd5b505050506040513d6000823e601f3d908101601f1916820160405261069a919081019061105d565b6001815181106106ba57634e487b7160e01b600052603260045260246000fd5b602002602001015190506000600267ffffffffffffffff8111156106ee57634e487b7160e01b600052604160045260246000fd5b604051908082528060200260200182016040528015610717578160200160208202803683370190505b50905085602001518160008151811061074057634e487b7160e01b600052603260045260246000fd5b6001600160a01b039283166020918202929092010152600180548351921691839190811061077e57634e487b7160e01b600052603260045260246000fd5b6001600160a01b0392831660209182029290920181019190915287015160405163095ea7b360e01b815286831660048201526024810185905291169063095ea7b390604401602060405180830381600087803b1580156107dd57600080fd5b505af11580156107f1573d6000803e3d6000fd5b505050506040513d601f19601f820116820180604052508101906108159190611105565b50606086015160c08701516040516338ed173960e01b81526000926001600160a01b038816926338ed173992610855928892909188913091600401611528565b600060405180830381600087803b15801561086f57600080fd5b505af1158015610883573d6000803e3d6000fd5b505050506040513d6000823e601f3d908101601f191682016040526108ab919081019061105d565b6001815181106108cb57634e487b7160e01b600052603260045260246000fd5b602002602001015190507f029b2750f12d6200ac7db7c47846edfb550cfc503b88373482cb821c1b3a90d4876020015188600001518960800151868b60a001518660405161091e96959493929190611328565b60405180910390a150505050505050505050565b6000546001600160a01b0316331461095c5760405162461bcd60e51b81526004016101c8906114a0565b60405163a9059cbb60e01b81526001600160a01b0382811660048301526024820184905284169063a9059cbb90604401602060405180830381600087803b1580156109a657600080fd5b505af11580156109ba573d6000803e3d6000fd5b505050506040513d601f19601f820116820180604052508101906109de9190611105565b50505050565b6000546001600160a01b03163314610a0e5760405162461bcd60e51b81526004016101c8906114a0565b6000610a1b8860026115f2565b60015460025460405163095ea7b360e01b81526001600160a01b03918216600482015260248101849052929350169063095ea7b390604401602060405180830381600087803b158015610a6d57600080fd5b505af1158015610a81573d6000803e3d6000fd5b505050506040513d601f19601f82011682018060405250810190610aa59190611105565b5060408051600380825260808201909252600091816020015b610ac6610e96565b815260200190600190039081610abe575050604080516101008101825260018152600060208083018290528351608081018552828152949550919392840192918201908152602001600081526020018c81525081526020016000815260200160008152602001306001600160a01b03168152602001600081526020016040518060200160405280600081525081525081600081518110610b7657634e487b7160e01b600052603260045260246000fd5b6020908102919091010152604080516101008101909152806008815260200160008152602001604051806080016040528060001515815260200160006001811115610bd157634e487b7160e01b600052602160045260246000fd5b815260200160008152602001600081525081526020016000815260200160008152602001306001600160a01b03168152602001600081526020016040518060e001604052808c8152602001886001600160a01b031681526020018781526020018a81526020018b6002811115610c5757634e487b7160e01b600052602160045260246000fd5b8152602001896002811115610c7c57634e487b7160e01b600052602160045260246000fd5b815260200186815250604051602001610c9591906114c4565b60405160208183030381529060405281525081600181518110610cc857634e487b7160e01b600052603260045260246000fd5b6020908102919091010152604080516101008101909152806000815260200160008152602001604051806080016040528060011515815260200160006001811115610d2357634e487b7160e01b600052602160045260246000fd5b8152602001600081526020018581525081526020016000815260200160008152602001306001600160a01b03168152602001600081526020016040518060200160405280600081525081525081600281518110610d9057634e487b7160e01b600052603260045260246000fd5b6020908102919091010152604080516001808252818301909252600091816020015b6040805180820190915260008082526020820152815260200190600190039081610db25790505090506040518060400160405280306001600160a01b03168152602001600181525081600081518110610e1b57634e487b7160e01b600052603260045260246000fd5b602090810291909101015260025460405163a67a6a4560e01b81526001600160a01b039091169063a67a6a4590610e589084908690600401611370565b600060405180830381600087803b158015610e7257600080fd5b505af1158015610e86573d6000803e3d6000fd5b5050505050505050505050505050565b604080516101008101825260008082526020820152908101610eda604080516080810190915260008082526020820190815260200160008152602001600081525090565b8152602001600081526020016000815260200160006001600160a01b0316815260200160008152602001606081525090565b8051610f178161166a565b919050565b600060208284031215610f2d578081fd5b8135610f3881611655565b9392505050565b60008060008385036080811215610f54578283fd5b8435610f5f81611655565b93506020601f1960408382011215610f75578485fd5b610f7d611598565b925081870135610f8c81611655565b835260408701358284015291935060608601359167ffffffffffffffff80841115610fb5578485fd5b838801935088601f850112610fc8578485fd5b833581811115610fda57610fda61162c565b610fea8484601f840116016115c1565b92508083528984828701011115610fff578586fd5b808486018585013782019092019390935250929591945092509050565b600080600060608486031215611030578283fd5b833561103b81611655565b925060208401359150604084013561105281611655565b809150509250925092565b6000602080838503121561106f578182fd5b825167ffffffffffffffff80821115611086578384fd5b818501915085601f830112611099578384fd5b8151818111156110ab576110ab61162c565b8060051b91506110bc8483016115c1565b8181528481019084860184860187018a10156110d6578788fd5b8795505b838610156110f85780518352600195909501949186019186016110da565b5098975050505050505050565b600060208284031215611116578081fd5b81518015158114610f38578182fd5b600060208284031215611136578081fd5b8135610f388161166a565b600060e08284031215611152578081fd5b60405160e0810181811067ffffffffffffffff821117156111755761117561162c565b60405282518152602083015161118a81611655565b8060208301525060408301516040820152606083015160608201526111b160808401610f0c565b60808201526111c260a08401610f0c565b60a082015260c083015160c08201528091505092915050565b6000602082840312156111ec578081fd5b5051919050565b60008060408385031215611205578182fd5b82359150602083013561121781611655565b809150509250929050565b600080600080600080600060e0888a03121561123c578485fd5b87359650602088013561124e8161166a565b95506040880135945060608801356112658161166a565b9350608088013561127581611655565b9699959850939692959460a0840135945060c09093013592915050565b60008151808452815b818110156112b75760208185018101518683018201520161129b565b818111156112c85782602083870101525b50601f01601f19169290920160200192915050565b600381106112ed576112ed611616565b9052565b805115158252602081015161130581611642565b6020830152604081015161131881611642565b6040830152606090810151910152565b6001600160a01b03871681526020810186905260c0810161134c60408301876112dd565b84606083015261135f60808301856112dd565b8260a0830152979650505050505050565b6040808252835182820181905260009190606090818501906020808901865b838110156113bd57815180516001600160a01b0316865283015183860152938601939082019060010161138f565b50508683038188015287518084528184019250600581901b84018201898301885b8381101561148f57601f19878403018652815161016081516009811061140657611406611616565b855281870151878601528a8201516114208c8701826112f1565b508982015160c081818801526080840151915060e0828189015260a085015192506114576101008901846001600160a01b03169052565b90840151610120880152909201516101408601829052915061147b81860183611292565b9787019794505050908401906001016113de565b50909b9a5050505050505050505050565b6020808252600a90820152694f776e6572206f6e6c7960b01b604082015260600190565b815181526020808301516001600160a01b031690820152604080830151908201526060808301519082015260808083015160e0830191611506908401826112dd565b5060a083015161151960a08401826112dd565b5060c092830151919092015290565b600060a082018783526020878185015260a0604085015281875180845260c0860191508289019350845b818110156115775784516001600160a01b031683529383019391830191600101611552565b50506001600160a01b03969096166060850152505050608001529392505050565b6040805190810167ffffffffffffffff811182821017156115bb576115bb61162c565b60405290565b604051601f8201601f1916810167ffffffffffffffff811182821017156115ea576115ea61162c565b604052919050565b6000821982111561161157634e487b7160e01b81526011600452602481fd5b500190565b634e487b7160e01b600052602160045260246000fd5b634e487b7160e01b600052604160045260246000fd5b6002811061165257611652611616565b50565b6001600160a01b038116811461165257600080fd5b6003811061165257600080fdfea264697066735822122048d14a5fa294e36c8d097968d54691a4e8fd6647e6fcac5b75ec0a95ec6e4eaf64736f6c63430008040033",
  "devdoc": {
    "kind": "dev",
    "methods": {},
    "version": 1
  },
  "userdoc": {
    "kind": "user",
    "methods": {},
    "version": 1
  },
  "storageLayout": {
    "storage": [
      {
        "astId": 81,
        "contract": "contracts/Transactor.sol:Transactor",
        "label": "owner",
        "offset": 0,
        "slot": "0",
        "type": "t_address"
      },
      {
        "astId": 135,
        "contract": "contracts/Transactor.sol:Transactor",
        "label": "weth",
        "offset": 0,
        "slot": "1",
        "type": "t_contract(IERC20)77"
      },
      {
        "astId": 138,
        "contract": "contracts/Transactor.sol:Transactor",
        "label": "dydxSoloMargin",
        "offset": 0,
        "slot": "2",
        "type": "t_contract(IDyDxSoloMargin)735"
      },
      {
        "astId": 141,
        "contract": "contracts/Transactor.sol:Transactor",
        "label": "uniswapV2Router",
        "offset": 0,
        "slot": "3",
        "type": "t_contract(IUniswapV2Router)755"
      },
      {
        "astId": 144,
        "contract": "contracts/Transactor.sol:Transactor",
        "label": "sushiswapRouter",
        "offset": 0,
        "slot": "4",
        "type": "t_contract(IUniswapV2Router)755"
      },
      {
        "astId": 147,
        "contract": "contracts/Transactor.sol:Transactor",
        "label": "cryptoComRouter",
        "offset": 0,
        "slot": "5",
        "type": "t_contract(IUniswapV2Router)755"
      }
    ],
    "types": {
      "t_address": {
        "encoding": "inplace",
        "label": "address",
        "numberOfBytes": "20"
      },
      "t_contract(IDyDxSoloMargin)735": {
        "encoding": "inplace",
        "label": "contract IDyDxSoloMargin",
        "numberOfBytes": "20"
      },
      "t_contract(IERC20)77": {
        "encoding": "inplace",
        "label": "contract IERC20",
        "numberOfBytes": "20"
      },
      "t_contract(IUniswapV2Router)755": {
        "encoding": "inplace",
        "label": "contract IUniswapV2Router",
        "numberOfBytes": "20"
      }
    }
  }
}