{
  "contractName": "Transactor",
  "abi": [
    {
      "inputs": [
        {
          "internalType": "address",
          "name": "_uniswapV2RouterAddress",
          "type": "address"
        }
      ],
      "stateMutability": "nonpayable",
      "type": "constructor"
    },
    {
      "inputs": [],
      "name": "owner",
      "outputs": [
        {
          "internalType": "address",
          "name": "",
          "type": "address"
        }
      ],
      "stateMutability": "view",
      "type": "function",
      "constant": true
    },
    {
      "inputs": [
        {
          "internalType": "address",
          "name": "_fromToken",
          "type": "address"
        },
        {
          "internalType": "uint256",
          "name": "_fromTokenAmount",
          "type": "uint256"
        },
        {
          "internalType": "address",
          "name": "_toToken",
          "type": "address"
        },
        {
          "internalType": "uint256",
          "name": "_minToTokenAmount",
          "type": "uint256"
        },
        {
          "internalType": "uint256",
          "name": "_deadline",
          "type": "uint256"
        }
      ],
      "name": "trade",
      "outputs": [],
      "stateMutability": "nonpayable",
      "type": "function"
    }
  ],
  "bytecode": "0x608060405234801561001057600080fd5b50604051610a5b380380610a5b8339818101604052810190610032919061011c565b336000806101000a81548173ffffffffffffffffffffffffffffffffffffffff021916908373ffffffffffffffffffffffffffffffffffffffff16021790555080600160006101000a81548173ffffffffffffffffffffffffffffffffffffffff021916908373ffffffffffffffffffffffffffffffffffffffff16021790555050610149565b600080fd5b600073ffffffffffffffffffffffffffffffffffffffff82169050919050565b60006100e9826100be565b9050919050565b6100f9816100de565b811461010457600080fd5b50565b600081519050610116816100f0565b92915050565b600060208284031215610132576101316100b9565b5b600061014084828501610107565b91505092915050565b610903806101586000396000f3fe608060405234801561001057600080fd5b50600436106100365760003560e01c8063879485911461003b5780638da5cb5b14610057575b600080fd5b61005560048036038101906100509190610410565b610075565b005b61005f610344565b60405161006c919061049a565b60405180910390f35b60008054906101000a900473ffffffffffffffffffffffffffffffffffffffff1673ffffffffffffffffffffffffffffffffffffffff163373ffffffffffffffffffffffffffffffffffffffff1614610103576040517f08c379a00000000000000000000000000000000000000000000000000000000081526004016100fa90610512565b60405180910390fd5b8473ffffffffffffffffffffffffffffffffffffffff1663095ea7b3600160009054906101000a900473ffffffffffffffffffffffffffffffffffffffff16866040518363ffffffff1660e01b8152600401610160929190610541565b6020604051808303816000875af115801561017f573d6000803e3d6000fd5b505050506040513d601f19601f820116820180604052508101906101a391906105a2565b506000600267ffffffffffffffff8111156101c1576101c06105cf565b5b6040519080825280602002602001820160405280156101ef5781602001602082028036833780820191505090505b5090508581600081518110610207576102066105fe565b5b602002602001019073ffffffffffffffffffffffffffffffffffffffff16908173ffffffffffffffffffffffffffffffffffffffff16815250508381600181518110610256576102556105fe565b5b602002602001019073ffffffffffffffffffffffffffffffffffffffff16908173ffffffffffffffffffffffffffffffffffffffff1681525050600160009054906101000a900473ffffffffffffffffffffffffffffffffffffffff1673ffffffffffffffffffffffffffffffffffffffff166338ed173986858433876040518663ffffffff1660e01b81526004016102f39594939291906106eb565b6000604051808303816000875af1158015610312573d6000803e3d6000fd5b505050506040513d6000823e3d601f19601f8201168201806040525081019061033b9190610884565b50505050505050565b60008054906101000a900473ffffffffffffffffffffffffffffffffffffffff1681565b6000604051905090565b600080fd5b600080fd5b600073ffffffffffffffffffffffffffffffffffffffff82169050919050565b60006103a78261037c565b9050919050565b6103b78161039c565b81146103c257600080fd5b50565b6000813590506103d4816103ae565b92915050565b6000819050919050565b6103ed816103da565b81146103f857600080fd5b50565b60008135905061040a816103e4565b92915050565b600080600080600060a0868803121561042c5761042b610372565b5b600061043a888289016103c5565b955050602061044b888289016103fb565b945050604061045c888289016103c5565b935050606061046d888289016103fb565b925050608061047e888289016103fb565b9150509295509295909350565b6104948161039c565b82525050565b60006020820190506104af600083018461048b565b92915050565b600082825260208201905092915050565b7f4f776e6572206f6e6c7900000000000000000000000000000000000000000000600082015250565b60006104fc600a836104b5565b9150610507826104c6565b602082019050919050565b6000602082019050818103600083015261052b816104ef565b9050919050565b61053b816103da565b82525050565b6000604082019050610556600083018561048b565b6105636020830184610532565b9392505050565b60008115159050919050565b61057f8161056a565b811461058a57600080fd5b50565b60008151905061059c81610576565b92915050565b6000602082840312156105b8576105b7610372565b5b60006105c68482850161058d565b91505092915050565b7f4e487b7100000000000000000000000000000000000000000000000000000000600052604160045260246000fd5b7f4e487b7100000000000000000000000000000000000000000000000000000000600052603260045260246000fd5b600081519050919050565b600082825260208201905092915050565b6000819050602082019050919050565b6106628161039c565b82525050565b60006106748383610659565b60208301905092915050565b6000602082019050919050565b60006106988261062d565b6106a28185610638565b93506106ad83610649565b8060005b838110156106de5781516106c58882610668565b97506106d083610680565b9250506001810190506106b1565b5085935050505092915050565b600060a0820190506107006000830188610532565b61070d6020830187610532565b818103604083015261071f818661068d565b905061072e606083018561048b565b61073b6080830184610532565b9695505050505050565b600080fd5b6000601f19601f8301169050919050565b6107648261074a565b810181811067ffffffffffffffff82111715610783576107826105cf565b5b80604052505050565b6000610796610368565b90506107a2828261075b565b919050565b600067ffffffffffffffff8211156107c2576107c16105cf565b5b602082029050602081019050919050565b600080fd5b6000815190506107e7816103e4565b92915050565b60006108006107fb846107a7565b61078c565b90508083825260208201905060208402830185811115610823576108226107d3565b5b835b8181101561084c578061083888826107d8565b845260208401935050602081019050610825565b5050509392505050565b600082601f83011261086b5761086a610745565b5b815161087b8482602086016107ed565b91505092915050565b60006020828403121561089a57610899610372565b5b600082015167ffffffffffffffff8111156108b8576108b7610377565b5b6108c484828501610856565b9150509291505056fea264697066735822122078dd8a67c492ba2e7895207a679b691ac0656d11e29731adba6b50f6b87a639a64736f6c634300080a0033",
  "immutableReferences": {},
  "source": "// SPDX-License-Identifier: MIT\npragma solidity ^0.8.10;\n\nimport '@openzeppelin/contracts/token/ERC20/IERC20.sol';\nimport './Owner.sol';\nimport './interfaces/IUniswapV2Router.sol';\n\ncontract Transactor is Owner {\n  IUniswapV2Router private uniswapV2Router;\n\n  constructor(address _uniswapV2RouterAddress) {\n    // Initialize exchange contracts\n    uniswapV2Router = IUniswapV2Router(_uniswapV2RouterAddress);\n  }\n\n  function trade(\n    address _fromToken,\n    uint256 _fromTokenAmount,\n    address _toToken,\n    uint256 _minToTokenAmount,\n    uint256 _deadline\n  ) public owned {\n    IERC20(_fromToken).approve(address(uniswapV2Router), _fromTokenAmount);\n\n    // For now, we only handle simple paths from one token to another\n    address[] memory path = new address[](2);\n    path[0] = address(_fromToken);\n    path[1] = address(_toToken);\n\n    uniswapV2Router.swapExactTokensForTokens(_fromTokenAmount, _minToTokenAmount, path, msg.sender, _deadline);\n  }\n}\n",
  "sourcePath": "/Users/maximejulian/Code/blockchain/when-lambo/bot/contracts/Transactor.sol",
  "compiler": {
    "name": "solc",
    "version": "0.8.10+commit.fc410830.Emscripten.clang"
  },
  "schemaVersion": "3.4.3",
  "updatedAt": "2021-11-22T03:04:18.335Z",
  "networkType": "ethereum",
  "devdoc": {
    "kind": "dev",
    "methods": {},
    "version": 1
  },
  "userdoc": {
    "kind": "user",
    "methods": {},
    "version": 1
  }
}