{
  "contractName": "Transactor",
  "abi": [
    {
      "inputs": [
        {
          "internalType": "address",
          "name": "_uniswapV2RouterAddress",
          "type": "address"
        }
      ],
      "stateMutability": "nonpayable",
      "type": "constructor"
    },
    {
      "inputs": [],
      "name": "owner",
      "outputs": [
        {
          "internalType": "address",
          "name": "",
          "type": "address"
        }
      ],
      "stateMutability": "view",
      "type": "function",
      "constant": true
    },
    {
      "inputs": [
        {
          "internalType": "address",
          "name": "_newOwner",
          "type": "address"
        }
      ],
      "name": "setOwner",
      "outputs": [],
      "stateMutability": "nonpayable",
      "type": "function"
    },
    {
      "inputs": [],
      "name": "getBalance",
      "outputs": [
        {
          "internalType": "uint256",
          "name": "balance",
          "type": "uint256"
        }
      ],
      "stateMutability": "view",
      "type": "function",
      "constant": true
    },
    {
      "inputs": [
        {
          "internalType": "address",
          "name": "_token",
          "type": "address"
        },
        {
          "internalType": "uint256",
          "name": "_tokenAmount",
          "type": "uint256"
        }
      ],
      "name": "withdraw",
      "outputs": [],
      "stateMutability": "nonpayable",
      "type": "function"
    },
    {
      "inputs": [
        {
          "internalType": "address",
          "name": "_fromToken",
          "type": "address"
        },
        {
          "internalType": "uint256",
          "name": "_fromTokenAmount",
          "type": "uint256"
        },
        {
          "internalType": "address",
          "name": "_toToken",
          "type": "address"
        },
        {
          "internalType": "uint256",
          "name": "_minToTokenAmount",
          "type": "uint256"
        },
        {
          "internalType": "uint256",
          "name": "_deadline",
          "type": "uint256"
        }
      ],
      "name": "execute",
      "outputs": [],
      "stateMutability": "nonpayable",
      "type": "function"
    }
  ],
  "bytecode": "0x608060405234801561001057600080fd5b50604051610df3380380610df38339818101604052810190610032919061011c565b336000806101000a81548173ffffffffffffffffffffffffffffffffffffffff021916908373ffffffffffffffffffffffffffffffffffffffff16021790555080600160006101000a81548173ffffffffffffffffffffffffffffffffffffffff021916908373ffffffffffffffffffffffffffffffffffffffff16021790555050610149565b600080fd5b600073ffffffffffffffffffffffffffffffffffffffff82169050919050565b60006100e9826100be565b9050919050565b6100f9816100de565b811461010457600080fd5b50565b600081519050610116816100f0565b92915050565b600060208284031215610132576101316100b9565b5b600061014084828501610107565b91505092915050565b610c9b806101586000396000f3fe608060405234801561001057600080fd5b50600436106100575760003560e01c806312065fe01461005c57806313af40351461007a5780638da5cb5b14610096578063a409b78d146100b4578063f3fef3a3146100d0575b600080fd5b6100646100ec565b6040516100719190610691565b60405180910390f35b610094600480360381019061008f919061071e565b610183565b005b61009e610254565b6040516100ab919061075a565b60405180910390f35b6100ce60048036038101906100c991906107a1565b610278565b005b6100ea60048036038101906100e5919061081c565b610547565b005b60008060009054906101000a900473ffffffffffffffffffffffffffffffffffffffff1673ffffffffffffffffffffffffffffffffffffffff163373ffffffffffffffffffffffffffffffffffffffff161461017d576040517f08c379a0000000000000000000000000000000000000000000000000000000008152600401610174906108b9565b60405180910390fd5b47905090565b60008054906101000a900473ffffffffffffffffffffffffffffffffffffffff1673ffffffffffffffffffffffffffffffffffffffff163373ffffffffffffffffffffffffffffffffffffffff1614610211576040517f08c379a0000000000000000000000000000000000000000000000000000000008152600401610208906108b9565b60405180910390fd5b806000806101000a81548173ffffffffffffffffffffffffffffffffffffffff021916908373ffffffffffffffffffffffffffffffffffffffff16021790555050565b60008054906101000a900473ffffffffffffffffffffffffffffffffffffffff1681565b60008054906101000a900473ffffffffffffffffffffffffffffffffffffffff1673ffffffffffffffffffffffffffffffffffffffff163373ffffffffffffffffffffffffffffffffffffffff1614610306576040517f08c379a00000000000000000000000000000000000000000000000000000000081526004016102fd906108b9565b60405180910390fd5b8473ffffffffffffffffffffffffffffffffffffffff1663095ea7b3600160009054906101000a900473ffffffffffffffffffffffffffffffffffffffff16866040518363ffffffff1660e01b81526004016103639291906108d9565b6020604051808303816000875af1158015610382573d6000803e3d6000fd5b505050506040513d601f19601f820116820180604052508101906103a6919061093a565b506000600267ffffffffffffffff8111156103c4576103c3610967565b5b6040519080825280602002602001820160405280156103f25781602001602082028036833780820191505090505b509050858160008151811061040a57610409610996565b5b602002602001019073ffffffffffffffffffffffffffffffffffffffff16908173ffffffffffffffffffffffffffffffffffffffff1681525050838160018151811061045957610458610996565b5b602002602001019073ffffffffffffffffffffffffffffffffffffffff16908173ffffffffffffffffffffffffffffffffffffffff1681525050600160009054906101000a900473ffffffffffffffffffffffffffffffffffffffff1673ffffffffffffffffffffffffffffffffffffffff166338ed173986858433876040518663ffffffff1660e01b81526004016104f6959493929190610a83565b6000604051808303816000875af1158015610515573d6000803e3d6000fd5b505050506040513d6000823e3d601f19601f8201168201806040525081019061053e9190610c1c565b50505050505050565b60008054906101000a900473ffffffffffffffffffffffffffffffffffffffff1673ffffffffffffffffffffffffffffffffffffffff163373ffffffffffffffffffffffffffffffffffffffff16146105d5576040517f08c379a00000000000000000000000000000000000000000000000000000000081526004016105cc906108b9565b60405180910390fd5b8173ffffffffffffffffffffffffffffffffffffffff1663a9059cbb60008054906101000a900473ffffffffffffffffffffffffffffffffffffffff16836040518363ffffffff1660e01b81526004016106309291906108d9565b6020604051808303816000875af115801561064f573d6000803e3d6000fd5b505050506040513d601f19601f82011682018060405250810190610673919061093a565b505050565b6000819050919050565b61068b81610678565b82525050565b60006020820190506106a66000830184610682565b92915050565b6000604051905090565b600080fd5b600080fd5b600073ffffffffffffffffffffffffffffffffffffffff82169050919050565b60006106eb826106c0565b9050919050565b6106fb816106e0565b811461070657600080fd5b50565b600081359050610718816106f2565b92915050565b600060208284031215610734576107336106b6565b5b600061074284828501610709565b91505092915050565b610754816106e0565b82525050565b600060208201905061076f600083018461074b565b92915050565b61077e81610678565b811461078957600080fd5b50565b60008135905061079b81610775565b92915050565b600080600080600060a086880312156107bd576107bc6106b6565b5b60006107cb88828901610709565b95505060206107dc8882890161078c565b94505060406107ed88828901610709565b93505060606107fe8882890161078c565b925050608061080f8882890161078c565b9150509295509295909350565b60008060408385031215610833576108326106b6565b5b600061084185828601610709565b92505060206108528582860161078c565b9150509250929050565b600082825260208201905092915050565b7f4f776e6572206f6e6c7900000000000000000000000000000000000000000000600082015250565b60006108a3600a8361085c565b91506108ae8261086d565b602082019050919050565b600060208201905081810360008301526108d281610896565b9050919050565b60006040820190506108ee600083018561074b565b6108fb6020830184610682565b9392505050565b60008115159050919050565b61091781610902565b811461092257600080fd5b50565b6000815190506109348161090e565b92915050565b6000602082840312156109505761094f6106b6565b5b600061095e84828501610925565b91505092915050565b7f4e487b7100000000000000000000000000000000000000000000000000000000600052604160045260246000fd5b7f4e487b7100000000000000000000000000000000000000000000000000000000600052603260045260246000fd5b600081519050919050565b600082825260208201905092915050565b6000819050602082019050919050565b6109fa816106e0565b82525050565b6000610a0c83836109f1565b60208301905092915050565b6000602082019050919050565b6000610a30826109c5565b610a3a81856109d0565b9350610a45836109e1565b8060005b83811015610a76578151610a5d8882610a00565b9750610a6883610a18565b925050600181019050610a49565b5085935050505092915050565b600060a082019050610a986000830188610682565b610aa56020830187610682565b8181036040830152610ab78186610a25565b9050610ac6606083018561074b565b610ad36080830184610682565b9695505050505050565b600080fd5b6000601f19601f8301169050919050565b610afc82610ae2565b810181811067ffffffffffffffff82111715610b1b57610b1a610967565b5b80604052505050565b6000610b2e6106ac565b9050610b3a8282610af3565b919050565b600067ffffffffffffffff821115610b5a57610b59610967565b5b602082029050602081019050919050565b600080fd5b600081519050610b7f81610775565b92915050565b6000610b98610b9384610b3f565b610b24565b90508083825260208201905060208402830185811115610bbb57610bba610b6b565b5b835b81811015610be45780610bd08882610b70565b845260208401935050602081019050610bbd565b5050509392505050565b600082601f830112610c0357610c02610add565b5b8151610c13848260208601610b85565b91505092915050565b600060208284031215610c3257610c316106b6565b5b600082015167ffffffffffffffff811115610c5057610c4f6106bb565b5b610c5c84828501610bee565b9150509291505056fea264697066735822122070d60e033e1ba0073c33942359f0579e612085f0945ede2aed00e1be3ff4819364736f6c634300080a0033",
  "immutableReferences": {},
  "source": "// SPDX-License-Identifier: MIT\npragma solidity ^0.8.10;\n\nimport '@openzeppelin/contracts/token/ERC20/IERC20.sol';\nimport './Owner.sol';\nimport './interfaces/IUniswapV2Router.sol';\n\ncontract Transactor is Owner {\n  IUniswapV2Router private uniswapV2Router;\n\n  constructor(address _uniswapV2RouterAddress) {\n    // Initialize exchange contracts\n    uniswapV2Router = IUniswapV2Router(_uniswapV2RouterAddress);\n  }\n\n  function getBalance() public view owned returns (uint256 balance) {\n    return address(this).balance;\n  }\n\n  function withdraw(address _token, uint256 _tokenAmount) public owned {\n    IERC20(_token).transfer(address(owner), _tokenAmount);\n  }\n\n  function execute(\n    address _fromToken,\n    uint256 _fromTokenAmount,\n    address _toToken,\n    uint256 _minToTokenAmount,\n    uint256 _deadline\n  ) public owned {\n    IERC20(_fromToken).approve(address(uniswapV2Router), _fromTokenAmount);\n\n    // For now, we only handle simple paths from one token to another\n    address[] memory path = new address[](2);\n    path[0] = address(_fromToken);\n    path[1] = address(_toToken);\n\n    uniswapV2Router.swapExactTokensForTokens(_fromTokenAmount, _minToTokenAmount, path, msg.sender, _deadline);\n  }\n}\n",
  "sourcePath": "/Users/maximejulian/Code/blockchain/when-lambo/bot/contracts/Transactor.sol",
  "compiler": {
    "name": "solc",
    "version": "0.8.10+commit.fc410830.Emscripten.clang"
  },
  "schemaVersion": "3.4.3",
  "updatedAt": "2021-11-23T23:09:45.218Z",
  "networkType": "ethereum",
  "devdoc": {
    "kind": "dev",
    "methods": {},
    "version": 1
  },
  "userdoc": {
    "kind": "user",
    "methods": {},
    "version": 1
  }
}