{
  "contractName": "Transactor",
  "abi": [
    {
      "inputs": [
        {
          "internalType": "address",
          "name": "_uniswapV2RouterAddress",
          "type": "address"
        }
      ],
      "stateMutability": "nonpayable",
      "type": "constructor"
    },
    {
      "stateMutability": "payable",
      "type": "fallback",
      "payable": true
    },
    {
      "inputs": [],
      "name": "owner",
      "outputs": [
        {
          "internalType": "address",
          "name": "",
          "type": "address"
        }
      ],
      "stateMutability": "view",
      "type": "function",
      "constant": true
    },
    {
      "inputs": [
        {
          "internalType": "address",
          "name": "_newOwner",
          "type": "address"
        }
      ],
      "name": "setOwner",
      "outputs": [],
      "stateMutability": "nonpayable",
      "type": "function"
    },
    {
      "stateMutability": "payable",
      "type": "receive",
      "payable": true
    },
    {
      "inputs": [
        {
          "internalType": "address",
          "name": "_fromToken",
          "type": "address"
        }
      ],
      "name": "getBalance",
      "outputs": [
        {
          "internalType": "uint256",
          "name": "balance",
          "type": "uint256"
        }
      ],
      "stateMutability": "view",
      "type": "function",
      "constant": true
    },
    {
      "inputs": [],
      "name": "getETHBalance",
      "outputs": [
        {
          "internalType": "uint256",
          "name": "balance",
          "type": "uint256"
        }
      ],
      "stateMutability": "view",
      "type": "function",
      "constant": true
    },
    {
      "inputs": [
        {
          "internalType": "address",
          "name": "_token",
          "type": "address"
        },
        {
          "internalType": "uint256",
          "name": "_tokenAmount",
          "type": "uint256"
        }
      ],
      "name": "withdraw",
      "outputs": [],
      "stateMutability": "nonpayable",
      "type": "function"
    },
    {
      "inputs": [
        {
          "internalType": "address",
          "name": "_fromToken",
          "type": "address"
        },
        {
          "internalType": "uint256",
          "name": "_fromTokenAmount",
          "type": "uint256"
        },
        {
          "internalType": "address",
          "name": "_toToken",
          "type": "address"
        },
        {
          "internalType": "uint256",
          "name": "_minToTokenAmount",
          "type": "uint256"
        },
        {
          "internalType": "uint256",
          "name": "_deadline",
          "type": "uint256"
        }
      ],
      "name": "execute",
      "outputs": [],
      "stateMutability": "nonpayable",
      "type": "function"
    }
  ],
  "bytecode": "0x608060405234801561001057600080fd5b5060405162001052380380620010528339818101604052810190610034919061011e565b336000806101000a81548173ffffffffffffffffffffffffffffffffffffffff021916908373ffffffffffffffffffffffffffffffffffffffff16021790555080600160006101000a81548173ffffffffffffffffffffffffffffffffffffffff021916908373ffffffffffffffffffffffffffffffffffffffff1602179055505061014b565b600080fd5b600073ffffffffffffffffffffffffffffffffffffffff82169050919050565b60006100eb826100c0565b9050919050565b6100fb816100e0565b811461010657600080fd5b50565b600081519050610118816100f2565b92915050565b600060208284031215610134576101336100bb565b5b600061014284828501610109565b91505092915050565b610ef7806200015b6000396000f3fe6080604052600436106100595760003560e01c806313af4035146100625780636e9472981461008b5780638da5cb5b146100b6578063a409b78d146100e1578063f3fef3a31461010a578063f8b2cb4f1461013357610060565b3661006057005b005b34801561006e57600080fd5b50610089600480360381019061008491906108ad565b610170565b005b34801561009757600080fd5b506100a0610241565b6040516100ad91906108f3565b60405180910390f35b3480156100c257600080fd5b506100cb610249565b6040516100d8919061091d565b60405180910390f35b3480156100ed57600080fd5b5061010860048036038101906101039190610964565b61026d565b005b34801561011657600080fd5b50610131600480360381019061012c91906109df565b6105f8565b005b34801561013f57600080fd5b5061015a600480360381019061015591906108ad565b610729565b60405161016791906108f3565b60405180910390f35b60008054906101000a900473ffffffffffffffffffffffffffffffffffffffff1673ffffffffffffffffffffffffffffffffffffffff163373ffffffffffffffffffffffffffffffffffffffff16146101fe576040517f08c379a00000000000000000000000000000000000000000000000000000000081526004016101f590610a7c565b60405180910390fd5b806000806101000a81548173ffffffffffffffffffffffffffffffffffffffff021916908373ffffffffffffffffffffffffffffffffffffffff16021790555050565b600047905090565b60008054906101000a900473ffffffffffffffffffffffffffffffffffffffff1681565b60008054906101000a900473ffffffffffffffffffffffffffffffffffffffff1673ffffffffffffffffffffffffffffffffffffffff163373ffffffffffffffffffffffffffffffffffffffff16146102fb576040517f08c379a00000000000000000000000000000000000000000000000000000000081526004016102f290610a7c565b60405180910390fd5b838573ffffffffffffffffffffffffffffffffffffffff166370a08231306040518263ffffffff1660e01b8152600401610335919061091d565b602060405180830381865afa158015610352573d6000803e3d6000fd5b505050506040513d601f19601f820116820180604052508101906103769190610ab1565b10156103b7576040517f08c379a00000000000000000000000000000000000000000000000000000000081526004016103ae90610b2a565b60405180910390fd5b8473ffffffffffffffffffffffffffffffffffffffff1663095ea7b3600160009054906101000a900473ffffffffffffffffffffffffffffffffffffffff16866040518363ffffffff1660e01b8152600401610414929190610b4a565b6020604051808303816000875af1158015610433573d6000803e3d6000fd5b505050506040513d601f19601f820116820180604052508101906104579190610bab565b506000600267ffffffffffffffff81111561047557610474610bd8565b5b6040519080825280602002602001820160405280156104a35781602001602082028036833780820191505090505b50905085816000815181106104bb576104ba610c07565b5b602002602001019073ffffffffffffffffffffffffffffffffffffffff16908173ffffffffffffffffffffffffffffffffffffffff1681525050838160018151811061050a57610509610c07565b5b602002602001019073ffffffffffffffffffffffffffffffffffffffff16908173ffffffffffffffffffffffffffffffffffffffff1681525050600160009054906101000a900473ffffffffffffffffffffffffffffffffffffffff1673ffffffffffffffffffffffffffffffffffffffff166338ed173986858433876040518663ffffffff1660e01b81526004016105a7959493929190610cf4565b6000604051808303816000875af11580156105c6573d6000803e3d6000fd5b505050506040513d6000823e3d601f19601f820116820180604052508101906105ef9190610e78565b50505050505050565b60008054906101000a900473ffffffffffffffffffffffffffffffffffffffff1673ffffffffffffffffffffffffffffffffffffffff163373ffffffffffffffffffffffffffffffffffffffff1614610686576040517f08c379a000000000000000000000000000000000000000000000000000000000815260040161067d90610a7c565b60405180910390fd5b8173ffffffffffffffffffffffffffffffffffffffff1663a9059cbb60008054906101000a900473ffffffffffffffffffffffffffffffffffffffff16836040518363ffffffff1660e01b81526004016106e1929190610b4a565b6020604051808303816000875af1158015610700573d6000803e3d6000fd5b505050506040513d601f19601f820116820180604052508101906107249190610bab565b505050565b60008060009054906101000a900473ffffffffffffffffffffffffffffffffffffffff1673ffffffffffffffffffffffffffffffffffffffff163373ffffffffffffffffffffffffffffffffffffffff16146107ba576040517f08c379a00000000000000000000000000000000000000000000000000000000081526004016107b190610a7c565b60405180910390fd5b8173ffffffffffffffffffffffffffffffffffffffff166370a08231306040518263ffffffff1660e01b81526004016107f3919061091d565b602060405180830381865afa158015610810573d6000803e3d6000fd5b505050506040513d601f19601f820116820180604052508101906108349190610ab1565b9050919050565b6000604051905090565b600080fd5b600080fd5b600073ffffffffffffffffffffffffffffffffffffffff82169050919050565b600061087a8261084f565b9050919050565b61088a8161086f565b811461089557600080fd5b50565b6000813590506108a781610881565b92915050565b6000602082840312156108c3576108c2610845565b5b60006108d184828501610898565b91505092915050565b6000819050919050565b6108ed816108da565b82525050565b600060208201905061090860008301846108e4565b92915050565b6109178161086f565b82525050565b6000602082019050610932600083018461090e565b92915050565b610941816108da565b811461094c57600080fd5b50565b60008135905061095e81610938565b92915050565b600080600080600060a086880312156109805761097f610845565b5b600061098e88828901610898565b955050602061099f8882890161094f565b94505060406109b088828901610898565b93505060606109c18882890161094f565b92505060806109d28882890161094f565b9150509295509295909350565b600080604083850312156109f6576109f5610845565b5b6000610a0485828601610898565b9250506020610a158582860161094f565b9150509250929050565b600082825260208201905092915050565b7f4f776e6572206f6e6c7900000000000000000000000000000000000000000000600082015250565b6000610a66600a83610a1f565b9150610a7182610a30565b602082019050919050565b60006020820190508181036000830152610a9581610a59565b9050919050565b600081519050610aab81610938565b92915050565b600060208284031215610ac757610ac6610845565b5b6000610ad584828501610a9c565b91505092915050565b7f4e6f7420656e6f7567682066726f6d546f6b656e206f6e20636f6e7472616374600082015250565b6000610b14602083610a1f565b9150610b1f82610ade565b602082019050919050565b60006020820190508181036000830152610b4381610b07565b9050919050565b6000604082019050610b5f600083018561090e565b610b6c60208301846108e4565b9392505050565b60008115159050919050565b610b8881610b73565b8114610b9357600080fd5b50565b600081519050610ba581610b7f565b92915050565b600060208284031215610bc157610bc0610845565b5b6000610bcf84828501610b96565b91505092915050565b7f4e487b7100000000000000000000000000000000000000000000000000000000600052604160045260246000fd5b7f4e487b7100000000000000000000000000000000000000000000000000000000600052603260045260246000fd5b600081519050919050565b600082825260208201905092915050565b6000819050602082019050919050565b610c6b8161086f565b82525050565b6000610c7d8383610c62565b60208301905092915050565b6000602082019050919050565b6000610ca182610c36565b610cab8185610c41565b9350610cb683610c52565b8060005b83811015610ce7578151610cce8882610c71565b9750610cd983610c89565b925050600181019050610cba565b5085935050505092915050565b600060a082019050610d0960008301886108e4565b610d1660208301876108e4565b8181036040830152610d288186610c96565b9050610d37606083018561090e565b610d4460808301846108e4565b9695505050505050565b600080fd5b6000601f19601f8301169050919050565b610d6d82610d53565b810181811067ffffffffffffffff82111715610d8c57610d8b610bd8565b5b80604052505050565b6000610d9f61083b565b9050610dab8282610d64565b919050565b600067ffffffffffffffff821115610dcb57610dca610bd8565b5b602082029050602081019050919050565b600080fd5b6000610df4610def84610db0565b610d95565b90508083825260208201905060208402830185811115610e1757610e16610ddc565b5b835b81811015610e405780610e2c8882610a9c565b845260208401935050602081019050610e19565b5050509392505050565b600082601f830112610e5f57610e5e610d4e565b5b8151610e6f848260208601610de1565b91505092915050565b600060208284031215610e8e57610e8d610845565b5b600082015167ffffffffffffffff811115610eac57610eab61084a565b5b610eb884828501610e4a565b9150509291505056fea2646970667358221220a9d4fe3351518a63c0aa5fc2ec6d83eba3a1e5f1dc1ff244813ac7064552d9ff64736f6c634300080a0033",
  "immutableReferences": {},
  "source": "// SPDX-License-Identifier: MIT\npragma solidity ^0.8.10;\n\nimport '@openzeppelin/contracts/token/ERC20/IERC20.sol';\nimport './Owner.sol';\nimport './interfaces/IUniswapV2Router.sol';\n\ncontract Transactor is Owner {\n  IUniswapV2Router private uniswapV2Router;\n\n  constructor(address _uniswapV2RouterAddress) {\n    // Initialize exchange contracts\n    uniswapV2Router = IUniswapV2Router(_uniswapV2RouterAddress);\n  }\n\n  function getBalance(address _fromToken) public view owned returns (uint256 balance) {\n    return IERC20(_fromToken).balanceOf(address(this));\n  }\n\n  function getETHBalance() public view returns (uint256 balance) {\n    return address(this).balance;\n  }\n\n  function withdraw(address _token, uint256 _tokenAmount) public owned {\n    IERC20(_token).transfer(address(owner), _tokenAmount);\n  }\n\n  // TODO: check if we need these functions to receive funds on the contract (if we receive ETH)\n  // Function to receive Ether. msg.data must be empty\n  receive() external payable {}\n\n  // Fallback function is called when msg.data is not empty\n  fallback() external payable {}\n\n  function execute(\n    address _fromToken,\n    uint256 _fromTokenAmount,\n    address _toToken,\n    uint256 _minToTokenAmount,\n    uint256 _deadline\n  ) public owned {\n    require(IERC20(_fromToken).balanceOf(address(this)) >= _fromTokenAmount, 'Not enough fromToken on contract');\n\n    IERC20(_fromToken).approve(address(uniswapV2Router), _fromTokenAmount);\n\n    // For now, we only handle simple paths from one token to another\n    address[] memory path = new address[](2);\n    path[0] = address(_fromToken);\n    path[1] = address(_toToken);\n\n    uniswapV2Router.swapExactTokensForTokens(_fromTokenAmount, _minToTokenAmount, path, msg.sender, _deadline);\n  }\n}\n",
  "sourcePath": "/Users/maximejulian/Code/blockchain/when-lambo/bot/contracts/Transactor.sol",
  "compiler": {
    "name": "solc",
    "version": "0.8.10+commit.fc410830.Emscripten.clang"
  },
  "schemaVersion": "3.4.3",
  "updatedAt": "2021-11-24T02:16:00.009Z",
  "networkType": "ethereum",
  "devdoc": {
    "kind": "dev",
    "methods": {},
    "version": 1
  },
  "userdoc": {
    "kind": "user",
    "methods": {},
    "version": 1
  }
}